:1000000002308A00D82A000053282022C526202248
:10001000D527431DA01230195500C724CF24202412
:100020004127A029501DA012301955000C0027307F
:1000300084008313000803192B280130F800F7010E
:10004000F70B2028F80B1F284A30F700F70B26285B
:100050002928800B1D2808002E1830280812312866
:100060000816831608128312AE1838288812392809
:1000700088168316881283122E19402808134128E7
:100080000817831608138312AE19482888134928C5
:100090008817831688130000831209148316091029
:1000A0005128831209108316091083120800AF012A
:1000B0008316081600308312081A0130AF04831625
:1000C000881600308312881A0130F7000310F70DEC
:1000D0007708AF048316081700308312081B01301D
:1000E000F700F70DF70DFC30F7057708AF0483161E
:1000F000881700308312881B0130F700F70DF70DC9
:10010000F70DF830F7057708AF042F08F80008005E
:10011000831609108910091183128910831689101A
:1001200008168816081788178312091583160911EF
:10013000000083120914831609100000831257204F
:100140007808AE0009108316091000008312091404
:10015000831609100000831257207808AD0009109B
:1001600083160910081288120813881383122E0EA2
:10017000F700F030F70577082D04F8007808AD0097
:10018000AD1FC42883169028AB08031DC928891009
:10019000CA28891483168910000083120911831656
:1001A00009110000831209108316091083122C0E06
:1001B000AD000F30AD052D08AE002C202C080F39F6
:1001C000AD00AE002C2008002830A3000C30A400A5
:1001D0000130A5000630A60009108316091083120D
:1001E00089108316891083120911831609110812C8
:1001F0008812081388130910891009110F3083120F
:10020000A70017200130A2002208033C031C10297C
:100210000330AE002C200530A7001720A20A0429C5
:100220000230AE002C200530A7001720A2012208C2
:10023000033C031C27292330220784008313000872
:10024000A700AB012708AC008820A20A17298A1151
:100250000A12EC2A280B2D2930294030A900312917
:10026000A90101302702A90729088038AA00AB019B
:100270002A08AC00882008002608073A03194A29F2
:100280000B3A03194F29063A03195729023A031961
:100290005D2962290130A700A8002A216729AB0146
:1002A0000130AC0088200230A700172067290130F8
:1002B000A7000230A8002A216729AB011030AC004A
:1002C000882067290130AB002608AC008820080090
:1002D0000B08A2008B13831603178C170C14000055
:1002E000000083120313A21B8B1703170C087F391E
:1002F0000319BC290313A20003170D080313A3005D
:1003000003170F080313A4002208A6003C212308AA
:1003100003178D000313240803178F0003130B0822
:10032000A5008B13831603178C170C140000000014
:1003300083120313A51B8B1703170C0D0E0D7F39AA
:100340000319BC290313A20003170D080313A3000C
:1003500003170F080313A4002208A6003C2123085A
:1003600003178D000313240803178F008D0A031948
:100370008F0A03136829031703138A110A12F32A39
:100380000B08A3008B13831603178C170C140000A3
:10039000000083120313A31B8B170318F7290317FD
:1003A0000C087F390313A30003170D080313A400DF
:1003B00003170F080313A5002308A6003C212408F7
:1003C00003178D000313250803178F0003130B0871
:1003D000A6008B13831603178C170C140000000063
:1003E00083120313A61B8B17A20BF729162A0317D8
:1003F0000C0D0E0D7F390313A30003170D08031313
:10040000A40003170F080313A5002308A6003C212E
:10041000240803178D000313250803178F008D0A86
:1004200003198F0A03100313A20BC0290800250823
:10043000F801240203181F2A2408F7002B2AF701C9
:100440000830A600A40DF70D250877020318F70061
:10045000F80DA60B222A080078082208A4006430B0
:10046000A50017227708A20078083030031D3F2A24
:10047000A31C462AA319462A231A2030422AA31174
:1004800023122314F8077808A6003C212208A400B0
:100490000A30A50017227708A20078083030031D23
:1004A000572AA3195B2A231C5B2A231A2030F8073A
:1004B0007808A6003C213030A2072208A6003C2183
:1004C00008000130A7000230A8002A2104300317D9
:1004D0008D0000308F0003100D300313A200C021E7
:1004E0002008A2000130A3002C22831606168312D6
:1004F000061A802A831606168312061A7A2AA00A7A
:10050000200821020318892A6430A7001720210837
:10051000A0008A110A12FF2A0130A700A8002A2190
:100520000D3003178D0000308F0003100D300313C2
:10053000A200C0212108A2000130A3002C228316B2
:10054000861483128618B72A831686148312861897
:10055000A42A6430A70017208316861483128618F5
:10056000A10A2108633C0318B72A0A30A1008316A8
:10057000061583120619CF2A83160615831206194B
:10058000BC2A6430A70017208316061583120619AB
:10059000A1032108093C031CCF2A6330A1008A1162
:1005A0000A12002B8B15C0308B048A110A12012B02
:1005B00003081F39830083161F149F141F159F11F2
:1005C00007309C008313003088000910891009113E
:1005D000FF3086008312E428163003178D000030A8
:1005E0008F00031368290A30A10083160108C73958
:1005F00028388100831281010108A000612A8C2A19
:06060000D22AFC2A63006F
:02400E00323F3F
:00000001FF
;PIC16F877A
;CRC=1F7F  CREATED="09-Apr-24 11:13"
